{
  "contractName": "SmartWallet",
  "abi": [
    {
      "constant": true,
      "inputs": [],
      "name": "owner",
      "outputs": [
        {
          "name": "",
          "type": "address"
        }
      ],
      "payable": false,
      "stateMutability": "view",
      "type": "function"
    },
    {
      "payable": true,
      "stateMutability": "payable",
      "type": "fallback"
    },
    {
      "anonymous": false,
      "inputs": [
        {
          "indexed": true,
          "name": "_to",
          "type": "address"
        },
        {
          "indexed": false,
          "name": "_percent",
          "type": "uint256"
        },
        {
          "indexed": false,
          "name": "_amount",
          "type": "uint256"
        },
        {
          "indexed": false,
          "name": "_total",
          "type": "uint256"
        }
      ],
      "name": "Deposited",
      "type": "event"
    },
    {
      "anonymous": false,
      "inputs": [
        {
          "indexed": false,
          "name": "msg",
          "type": "string"
        }
      ],
      "name": "configureFailure",
      "type": "event"
    },
    {
      "anonymous": false,
      "inputs": [
        {
          "indexed": false,
          "name": "msg",
          "type": "string"
        }
      ],
      "name": "configureSuccess",
      "type": "event"
    },
    {
      "constant": true,
      "inputs": [],
      "name": "getConfiguration",
      "outputs": [
        {
          "name": "",
          "type": "uint256[20]"
        },
        {
          "name": "",
          "type": "address[20]"
        },
        {
          "name": "",
          "type": "uint256"
        }
      ],
      "payable": false,
      "stateMutability": "view",
      "type": "function"
    },
    {
      "constant": true,
      "inputs": [
        {
          "name": "_addr",
          "type": "address"
        }
      ],
      "name": "isContractAddress",
      "outputs": [
        {
          "name": "isContract",
          "type": "bool"
        }
      ],
      "payable": false,
      "stateMutability": "view",
      "type": "function"
    },
    {
      "constant": false,
      "inputs": [
        {
          "name": "_totalWallets",
          "type": "uint256"
        },
        {
          "name": "_percents",
          "type": "uint256[]"
        },
        {
          "name": "_walletAddress",
          "type": "address[]"
        }
      ],
      "name": "configureShare",
      "outputs": [],
      "payable": false,
      "stateMutability": "nonpayable",
      "type": "function"
    }
  ],
  "bytecode": "0x6080604052336000806101000a81548173ffffffffffffffffffffffffffffffffffffffff021916908373ffffffffffffffffffffffffffffffffffffffff16021790555034801561005057600080fd5b506108eb806100606000396000f300608060405260043610610062576000357c0100000000000000000000000000000000000000000000000000000000900463ffffffff1680636bd50cef146102195780638da5cb5b146102a25780638ed9606a146102f9578063aa2f108e14610354575b60008060006029541415151561007757600080fd5b349150600090505b6029548110156102155760158160148110151561009857fe5b0160009054906101000a900473ffffffffffffffffffffffffffffffffffffffff1673ffffffffffffffffffffffffffffffffffffffff167f91ede45f04a37a7c170f5c1207df3b6bc748dc1e04ad5e917a241d0f52feada360018360148110151561010057fe5b0154610138606461012a60018760148110151561011957fe5b01548861040790919063ffffffff16565b61044590919063ffffffff16565b8560405180848152602001838152602001828152602001935050505060405180910390a260158160148110151561016b57fe5b0160009054906101000a900473ffffffffffffffffffffffffffffffffffffffff1673ffffffffffffffffffffffffffffffffffffffff166108fc6101dc60646101ce6001866014811015156101bd57fe5b01548761040790919063ffffffff16565b61044590919063ffffffff16565b9081150290604051600060405180830381858888f19350505050158015610207573d6000803e3d6000fd5b50808060010191505061007f565b5050005b34801561022557600080fd5b5061022e61046f565b6040518084601460200280838360005b8381101561025957808201518184015260208101905061023e565b5050505090500183601460200280838360005b8381101561028757808201518184015260208101905061026c565b50505050905001828152602001935050505060405180910390f35b3480156102ae57600080fd5b506102b76105a4565b604051808273ffffffffffffffffffffffffffffffffffffffff1673ffffffffffffffffffffffffffffffffffffffff16815260200191505060405180910390f35b34801561030557600080fd5b5061033a600480360381019080803573ffffffffffffffffffffffffffffffffffffffff1690602001909291905050506105c9565b604051808215151515815260200191505060405180910390f35b34801561036057600080fd5b506104056004803603810190808035906020019092919080359060200190820180359060200190808060200260200160405190810160405280939291908181526020018383602002808284378201915050505050509192919290803590602001908201803590602001908080602002602001604051908101604052809392919081815260200183836020028082843782019150505050505091929192905050506105e2565b005b600080600084141561041c576000915061043e565b828402905082848281151561042d57fe5b0414151561043a57600080fd5b8091505b5092915050565b60008060008311151561045757600080fd5b828481151561046257fe5b0490508091505092915050565b610477610877565b61047f61089b565b60008060009054906101000a900473ffffffffffffffffffffffffffffffffffffffff168073ffffffffffffffffffffffffffffffffffffffff163373ffffffffffffffffffffffffffffffffffffffff161415156104dd57600080fd5b600160156029548260148060200260405190810160405280929190826014801561051c576020028201915b815481526020019060010190808311610508575b5050505050925081601480602002604051908101604052809291908260148015610591576020028201915b8160009054906101000a900473ffffffffffffffffffffffffffffffffffffffff1673ffffffffffffffffffffffffffffffffffffffff1681526020019060010190808311610547575b5050505050915093509350935050909192565b6000809054906101000a900473ffffffffffffffffffffffffffffffffffffffff1681565b600080823b905060008163ffffffff1611915050919050565b60008060009054906101000a900473ffffffffffffffffffffffffffffffffffffffff168073ffffffffffffffffffffffffffffffffffffffff163373ffffffffffffffffffffffffffffffffffffffff1614151561064057600080fd5b84602981905550600091505b6029548210156106f557838281518110151561066457fe5b9060200190602002015160018360148110151561067d57fe5b0181905550828281518110151561069057fe5b906020019060200201516015836014811015156106a957fe5b0160006101000a81548173ffffffffffffffffffffffffffffffffffffffff021916908373ffffffffffffffffffffffffffffffffffffffff160217905550818060010192505061064c565b61073b6001601480602002604051908101604052809291908260148015610731576020028201915b81548152602001906001019080831161071d575b505050505061081d565b15156107ae577fa584223b6f95724b9181726583c3ffd6700a15423ea1bb35ec4bd1584815828760405180806020018281038252601d8152602001807f546f74616c2050657263656e7420436f756e742049736e27742031303000000081525060200191505060405180910390a1600080fd5b7f9a2513f7f9d186bd46675ce8260e844c4ca48f0d5f9dd3a45d0e88e3f4c914eb6040518080602001828103825260188152602001807f436f6e66696775726174696f6e205375636365737366756c000000000000000081525060200191505060405180910390a15050505050565b6000806000809150600090505b60295481101561085857838160148110151561084257fe5b602002015182019150808060010191505061082a565b60648214151561086b5760009250610870565b600192505b5050919050565b61028060405190810160405280601490602082028038833980820191505090505090565b610280604051908101604052806014906020820280388339808201915050905050905600a165627a7a723058208ecf1bc9c51b630d3ff5fe39bf514c33017302936c5eef71ed21e0b6b5ab56930029",
  "source": "pragma solidity 0.4.24;\n\nimport \"openzeppelin-solidity/contracts/math/SafeMath.sol\";\n\n\ncontract SmartWallet {\n    using SafeMath for uint;\n\n    address public owner = msg.sender;\n\n    uint[20] percent;\n    address[20] walletAddress;\n    uint totalWallets;\n\n    event Deposited(address indexed _to, uint _percent, uint _amount, uint _total);\n    event configureFailure(string msg);\n    event configureSuccess(string msg);\n\n    modifier onlyBy(address _account) {\n        require(msg.sender == _account);\n        _;\n    }\n\n    function() payable public {\n        require(totalWallets != 0);\n        uint amount = msg.value;\n        for (uint i = 0; i < totalWallets; i++) {\n            emit Deposited(walletAddress[i], percent[i], amount.mul(percent[i]).div(100), amount);\n            walletAddress[i].transfer(amount.mul(percent[i]).div(100));\n        }\n    }\n\n    function getConfiguration() public view onlyBy(owner) returns(uint[20], address[20], uint) {\n        return (percent, walletAddress, totalWallets);\n    }\n\n    function isContractAddress(address _addr) public view returns (bool isContract) {\n        uint32 size;\n        /* solhint-disable */\n        assembly {\n          size := extcodesize(_addr)\n        }\n        /* solhint-enable */\n        return (size > 0);\n    }  \n\n    function configureShare(uint _totalWallets, uint[] _percents, address[] _walletAddress) public onlyBy(owner) {\n        totalWallets = _totalWallets;\n\n        for (uint j = 0; j < totalWallets; j++) {\n            percent[j] = _percents[j];\n            walletAddress[j] = _walletAddress[j];\n        }\n\n        if (!checkPercentArray(percent)) {\n            emit configureFailure(\"Total Percent Count Isn't 100\");\n            revert();\n        }\n\n        emit configureSuccess(\"Configuration Successful\");\n    }\n\n    function checkPercentArray(uint[20] _percent) private view returns(bool) {\n        uint checkPercent = 0;\n        for (uint i = 0; i < totalWallets; i++) {\n            checkPercent += _percent[i];\n        }\n\n        if (checkPercent != 100) {\n            return false;\n        } else {\n            return true;\n        }\n    }\n}\n",
  "sourcePath": "/Users/daksh/Desktop/blockchain101/contracts/SmartWallet.sol",
  "compiler": {
    "name": "solc",
    "version": "0.4.24+commit.e67f0147.Emscripten.clang"
  },
  "schemaVersion": "2.0.1",
  "updatedAt": "2018-11-03T07:49:22.923Z"
}